:1000000094C00000ADC00000ABC00000A9C000005B
:10001000A7C00000A5C00000A3C00000A1C0000050
:100020009FC000009DC000009BC00000ACC300004A
:1000300097C0000095C0000093C0000091C0000070
:100040008FC000008DC000008BC0000089C0000080
:1000500087C0000085C0000083C0000037C10000D9
:100060007FC000007DC000007BC0000079C00000A0
:1000700077C000008204A0044E05A0044E05DA04F7
:10008000F7044E05160528052A0341007200640096
:10009000750069006E006F002000500050004D0098
:1000A00020004A006F00790073007400690063004B
:1000B0006B000000100341007200640075006900CD
:1000C0006E006F0000000403090409022200010110
:1000D00000C03209040000010300000009211101E1
:1000E0000001222B000705810308000A12011001FC
:1000F00000000008EB03432000000102000105019D
:100100000904A1010901A1000501093009310932E1
:10011000093309340935093609370938150026D05D
:1001200007751095098182C0C00011241FBECFEF52
:10013000D2E0DEBFCDBF11E0A0E0B1E0E0EFFEE035
:1001400002C005900D92AE30B107D9F711E0AEE0D4
:10015000B1E001C01D92A43CB107E1F72CD0C6C6A6
:100160004FCFCF93DF9384B7877F84BF88E10FB6EB
:10017000F89480936000109260000FBE20E130E0A0
:100180003093CD002093CC0096E09093CA0092E08B
:100190009093C800C9ECD0E08883539A5A9A8AB1E8
:1001A00080638AB98BB180638BB9E2D288E9888396
:1001B000DF91CF910895D5DF2FB7F89484E391E0D4
:1001C0009093B5018093B4019093B7018093B601E9
:1001D0002FBF789480E091E0B8D569D480910E016A
:1001E00090910F01892BB1F380910E0190910F0135
:1001F000019790930F0180930E0180910E019091D1
:100200000F01892B39F75D9AE5CF0895089580E0B5
:1002100091E079D5E2EEF0E08081846080830895FA
:1002200080E091E055C480910B0190910C01009702
:1002300029F0019790930C0180930B0108950F937F
:100240001F93CF93DF939FB7F8948091B8019FBF1E
:10025000823140F1E0E1F1E064E371E092E19E0F70
:10026000C091B601D091B7014991D093B701C09325
:10027000B601C45BD14021F47093B7016093B6011D
:100280005FB7F8948091B80181508093B8015FBF47
:1002900041939E13E5CF5D9880ED97E090930F0119
:1002A00080930E0182E1E0E1F1E0D90101900D922D
:1002B0008A95E1F782E190E0F8019183808380E004
:1002C000DF91CF911F910F91089508951F920F9282
:1002D0000FB60F9211242F938F939F93EF93FF9359
:1002E0008091CE009EB3943029F52FB7F894909169
:1002F000B8012FBF9038F1F0E091B401F091B50151
:100300008083E091B401F091B501CF010196909303
:10031000B5018093B401845B914021F484E391E0C2
:10032000928381839FB7F8948091B8018F5F809307
:10033000B8019FBFFF91EF919F918F912F910F90E7
:100340000FBE0F901F901895292F332723303105AA
:10035000E1F05CF42130310599F02230310579F576
:1003600082E290E02AEC30E02EC02132310511F11A
:100370002232310521F58BE290E02EEF30E023C0F0
:1003800082E190E02CEE30E01EC09927813091058B
:1003900041F08230910541F0892B89F4E6ECF0E0E0
:1003A00005C0E4EBF0E002C0E8E8F0E0849190E002
:1003B0009F0109C089E090E02CED30E004C080E0AE
:1003C00090E020E030E0FA01318320830895AC0111
:1003D00028E030E080E02417350720F48F5F220FFB
:1003E000331FF9CF8295807F08958093E900EBEE6B
:1003F000F0E0808181608083EDEEF0E01082609318
:10040000EC0040838091EE00881F8827881F0895A4
:100410001092F40080E08093E9001092F0001092B6
:10042000E8001092ED009091EB009E7F9093EB001E
:100430008F5F853081F708958091BC0187FF0FC0E1
:100440008091E80082FD04C08EB38111F9CF10C005
:100450008091E8008B770AC08EB3882349F08091A1
:10046000E80080FFF9CF8091E8008E778093E80064
:10047000089585E69091EC0090FF05C09091E8000A
:1004800090FF05C01BC09091E80092FD17C09EB37D
:100490009923B1F09EB39530A9F09091EB0095FDB2
:1004A00013C09091E10092FFE5CF9091E1009B7F16
:1004B0009093E1008150F1F684E0089580E0089582
:1004C00082E0089583E0089581E00895EF92FF921D
:1004D0000F931F93CF93DF938C01EB017A01C9DF58
:1004E00081111DC02097D1F08091E80085FD0EC0DC
:1004F0008091E8008E778093E800E114F10479F3AD
:10050000F7010995813059F785E009C0F80180812C
:100510008093F10021970F5F1F4FE4CF80E0DF91C0
:10052000CF911F910F91FF90EF9008952091C201FC
:100530003091C3012617370748F06115710539F46A
:100540002091E8002E772093E80001C0B90130E047
:100550006115710561F12091E80023FD37C02091FC
:10056000E80022FD2DC02EB3222391F12EB32530B9
:1005700089F12091E80020FFEBCF2091F200FC01EF
:10058000CF016115710549F0283038F481918093CD
:10059000F100615071092F5FF3CF31E0283009F08D
:1005A00030E02091E8002E772093E800D1CF311180
:1005B000D2CF06C08EB3882359F08EB3853051F068
:1005C0008091E80082FFF6CF80E0089581E00895F1
:1005D00082E0089583E008952091C2013091C30123
:1005E0002617370748F06115710539F42091E800A6
:1005F0002E772093E80001C0B90130E06115710544
:1006000069F12091E80023FD38C02091E80022FD27
:100610002EC02EB3222399F12EB3253091F12091D3
:10062000E80020FFEBCF2091F200FC01CF01611523
:10063000710551F0283040F484918093F1006150AD
:1006400071092F5F3196F2CF31E0283009F030E0A8
:100650002091E8002E772093E800D0CF3111D1CF40
:1006600006C08EB3882359F08EB3853051F0809147
:10067000E80082FFF6CF80E0089581E0089582E0EF
:10068000089583E008956115710529F42091E8002B
:100690002B772093E8006115710511F12091E80096
:1006A00023FD24C02EB3222319F12EB3253011F1DE
:1006B0002091E80022FFEFCF2091F200222331F3B6
:1006C00001962091F100FC0131972083615071095E
:1006D00099F7DCCF8EB3882359F08EB3853051F073
:1006E0008091E80080FFF6CF80E0089581E00895D2
:1006F00082E0089583E0089540D042D01EBA10925F
:10070000BA011092B90184E089BD89B5826089BDC2
:1007100009B400FEFDCF8091D800982F9F77909369
:10072000D80080688093D800809163008E7F80938A
:1007300063008091D8008F7D8093D8008091E00085
:100740008E7F8093E0008091E1008E7F8093E100B6
:100750008091E20081608093E2008091E100877FD8
:100760008093E1008091E20088608093E200089528
:10077000C3DF81E08093BB0108951092E2000895E9
:100780001092E10008951F920F920FB60F9211245C
:100790002F933F934F935F936F937F938F939F9389
:1007A000AF93BF93EF93FF938091E10080FF1BC055
:1007B0008091E20080FF17C08091E1008E7F8093DE
:1007C000E1008091E2008E7F8093E2008091E20060
:1007D00080618093E2008091D80080628093D8008D
:1007E00019BC1EBA13DD8091E10084FF29C08091FD
:1007F000E20084FF25C084E089BD89B5826089BD9F
:1008000009B400FEFDCF8091D8008F7D8093D80081
:100810008091E1008F7E8093E1008091E2008F7EE5
:100820008093E2008091E20081608093E2008091F9
:10083000BA01811102C081E001C084E08EBBE5DC19
:100840008091E10083FF22C08091E20083FF1EC0FF
:100850008091E100877F8093E10082E08EBB10925F
:10086000BA018091E1008E7F8093E1008091E200E7
:100870008E7F8093E2008091E20080618093E200AD
:10088000C7DD42E060E080E0B0DD10D18091E100A2
:1008900082FF0AC08091E20082FF06C08091E100E1
:1008A0008B7F8093E100BFDCFF91EF91BF91AF910F
:1008B0009F918F917F916F915F914F913F912F9178
:1008C0000F900FBE0F901F9018951F93CF93DF933B
:1008D00000D0CDB7DEB7ECEBF1E088E08E0F909161
:1008E000F10091938E13FBCF8091BC01E091BD018B
:1008F0004E2F50E04A30510508F0D0C0FA01E65CB6
:10090000FF4FD1C2803881F0823809F0C7C0809192
:10091000C00187708093E9008091EB0085FB8827F8
:1009200080F91092E90002C08091B9019091E8002D
:10093000977F9093E8008093F1001092F10081C0BE
:10094000982F9D7F09F0AAC0823009F098C080914D
:10095000BE01811129C08091C001877009F48FC048
:100960008093E9009091EB0090FF89C09091BD01C8
:10097000933021F48091EB00806214C09091EB00E1
:1009800090619093EB0021E030E0A90102C0440F98
:10099000551F8A95E2F74093EA001092EA00809191
:1009A000EB0088608093EB001092E9008091E800F2
:1009B000877F4AC0811172C01091BE018091E8000A
:1009C000877F8093E80038DD8091E80080FD04C0D7
:1009D0008EB38111F9CF53C0812F8F7711F492E03C
:1009E00001C093E09EBB80688093E30048C08058BC
:1009F000823008F053C0AE014F5F5F4F6091C0017D
:100A00008091BE019091BF019FDCBC010097B9F1BC
:100A10009091E800977F9093E80089819A81DCDDCE
:100A20008091E8008B778093E80029C08038B1F589
:100A30008091E800877F8093E8008091BA018093DD
:100A4000F1008091E8008E778093E800F5DC17C014
:100A5000811124C09091BE01923088F48091E80009
:100A6000877F8093E8009093BA01E6DC8091BA0119
:100A7000811102C083E001C084E08EBBC8DB80919D
:100A8000E80083FF0DC08091EB0080628093EB0053
:100A90008091E800877F8093E80002C0C1DBEFCF40
:100AA0000F900F90DF91CF911F9108950895CF93EC
:100AB0008EB3882359F0C091E900C7701092E90005
:100AC0008091E80083FD01DFC093E900CF91089594
:100AD0008F929F92AF92BF92CF92DF92EF92FF924E
:100AE0000F931F93CF93DF9300D01F92CDB7DEB744
:100AF0007C01CDB6DEB68091E80083FFEFC0F70140
:100B0000808190E02091C0013091C1012817390700
:100B100009F0E4C08091BD01833009F491C030F444
:100B2000813071F0823009F4C1C0D8C08A3009F434
:100B3000A6C08B3009F491C0893009F0CFC04DC0F8
:100B40008091BC01813A09F0C9C08DB69EB68091F2
:100B5000E800877F8093E8001A8219828091BE01A5
:100B60001091BF018B83F7018781482F50E08DB72B
:100B70009EB7841B950B0FB6F8949EBF0FBE8DBF1A
:100B8000EDB7FEB731965F0160E070E0CF01A7D10D
:100B90004FEF410F8E010F5F1F4F9501BE016D5F3B
:100BA0007F4FC7014CDBF70185819681009721F0CB
:100BB000478150E0B5018AD11092E90069817A81BC
:100BC000C501B4DC8091E8008B778093E8000FB614
:100BD000F8949EBE0FBE8DBE81C08091BC01813253
:100BE00009F07CC08091E800877F8093E800009145
:100BF000C2011091C301A090BE01B090BF018DB79A
:100C00009EB7801B910B0FB6F8949EBF0FBE8DBF91
:100C1000EDB7FEB731964F01B801CF0134DD4FEF8C
:100C20004B0D94016A2DC70150DB8091E8008E774F
:100C30008093E8000FB6F894DEBE0FBECDBE4EC066
:100C40008091BC01813A09F049C08091E800877F1A
:100C50008093E800F701808539C08091BC01813222
:100C6000E9F58091E800877F8093E8009091BE01CC
:100C700081E0911101C080E0F70180872EC0809152
:100C8000BC01813259F58091E800877F8093E800AC
:100C90008091BE019091BF01882736E09695879597
:100CA0003A95E1F7F7019287818717C08091BC01DF
:100CB000813AA1F48091E800877F8093E800F701F2
:100CC0008185928596958795969587958093F10075
:100CD0008091E8008E778093E800AEDB0FB6F89441
:100CE000DEBE0FBECDBE0F900F900F90DF91CF9163
:100CF0001F910F91FF90EF90DF90CF90BF90AF903A
:100D00009F908F900895CF93DF93FC01DC0118969C
:100D100085E0ED0119928A95E9F781E0808784EFFB
:100D200091E092878187828193812481211102C081
:100D3000C0E001C0C4E0D1814ADB8C2B482F426067
:100D400061EC8D2FDF91CF9150CB4F925F926F92DC
:100D50007F928F929F92AF92BF92CF92DF92EF924B
:100D6000FF920F931F93CF93DF9300D01F92CDB7C5
:100D7000DEB77C01ADB6BEB68EB3843009F07AC062
:100D8000F70181818093E9008091E80085FF72C0BE
:100D90008DB69EB6478150E08DB79EB7841B950BEC
:100DA0000FB6F8949EBF0FBE8DBFEDB7FEB731965C
:100DB0006F011B821A82198260E070E0CF018FD030
:100DC0008E010F5F1F4F960140E0BE016D5F7F4FA8
:100DD000C70135DA482EF70181859285892B51F0BC
:100DE00091E080E023853485232B09F090E0092FE2
:100DF000182F02C000E010E0F701658076806114D2
:100E0000710489F049815A81B301C60152D0552439
:100E10005394892B09F4512CF701478150E0B60116
:100E2000C30154D001C0512C89819A81892BE9F0EA
:100E3000411004C0511002C0012BB9F0F7018185A7
:100E400092859487838781818093E9008B818111CA
:100E50008093F10069817A8140E050E0C60136DB81
:100E60008091E8008E778093E8000FB6F8949EBEDC
:100E70000FBE8DBE0FB6F894BEBE0FBEADBE0F90B6
:100E80000F900F90DF91CF911F910F91FF90EF90F6
:100E9000DF90CF90BF90AF909F908F907F906F909A
:100EA0005F904F900895EE0FFF1F0590F491E02D95
:100EB0000994FB01DC0104C08D910190801921F49B
:100EC00041505040C8F7881B990B0895FB01DC0185
:100ED00002C001900D9241505040D8F70895DC01B6
:100EE00001C06D9341505040E0F70895F894FFCF52
:0E0EF0000001080000220112000000000000B6
:00000001FF
